{
  "contractName": "PoCToken",
  "abi": [
    {
      "constant": true,
      "inputs": [],
      "name": "name",
      "outputs": [
        {
          "name": "",
          "type": "string"
        }
      ],
      "payable": false,
      "stateMutability": "view",
      "type": "function"
    },
    {
      "constant": false,
      "inputs": [
        {
          "name": "_spender",
          "type": "address"
        },
        {
          "name": "_value",
          "type": "uint256"
        }
      ],
      "name": "approve",
      "outputs": [
        {
          "name": "",
          "type": "bool"
        }
      ],
      "payable": false,
      "stateMutability": "nonpayable",
      "type": "function"
    },
    {
      "constant": true,
      "inputs": [],
      "name": "totalSupply",
      "outputs": [
        {
          "name": "",
          "type": "uint256"
        }
      ],
      "payable": false,
      "stateMutability": "view",
      "type": "function"
    },
    {
      "constant": false,
      "inputs": [
        {
          "name": "_from",
          "type": "address"
        },
        {
          "name": "_to",
          "type": "address"
        },
        {
          "name": "_value",
          "type": "uint256"
        }
      ],
      "name": "transferFrom",
      "outputs": [
        {
          "name": "",
          "type": "bool"
        }
      ],
      "payable": false,
      "stateMutability": "nonpayable",
      "type": "function"
    },
    {
      "constant": true,
      "inputs": [],
      "name": "decimals",
      "outputs": [
        {
          "name": "",
          "type": "uint8"
        }
      ],
      "payable": false,
      "stateMutability": "view",
      "type": "function"
    },
    {
      "constant": false,
      "inputs": [
        {
          "name": "_spender",
          "type": "address"
        },
        {
          "name": "_subtractedValue",
          "type": "uint256"
        }
      ],
      "name": "decreaseApproval",
      "outputs": [
        {
          "name": "",
          "type": "bool"
        }
      ],
      "payable": false,
      "stateMutability": "nonpayable",
      "type": "function"
    },
    {
      "constant": true,
      "inputs": [
        {
          "name": "_owner",
          "type": "address"
        }
      ],
      "name": "balanceOf",
      "outputs": [
        {
          "name": "balance",
          "type": "uint256"
        }
      ],
      "payable": false,
      "stateMutability": "view",
      "type": "function"
    },
    {
      "constant": true,
      "inputs": [],
      "name": "symbol",
      "outputs": [
        {
          "name": "",
          "type": "string"
        }
      ],
      "payable": false,
      "stateMutability": "view",
      "type": "function"
    },
    {
      "constant": false,
      "inputs": [
        {
          "name": "_to",
          "type": "address"
        },
        {
          "name": "_value",
          "type": "uint256"
        }
      ],
      "name": "transfer",
      "outputs": [
        {
          "name": "",
          "type": "bool"
        }
      ],
      "payable": false,
      "stateMutability": "nonpayable",
      "type": "function"
    },
    {
      "constant": false,
      "inputs": [],
      "name": "getTokens",
      "outputs": [
        {
          "name": "",
          "type": "bool"
        }
      ],
      "payable": false,
      "stateMutability": "nonpayable",
      "type": "function"
    },
    {
      "constant": false,
      "inputs": [
        {
          "name": "_spender",
          "type": "address"
        },
        {
          "name": "_addedValue",
          "type": "uint256"
        }
      ],
      "name": "increaseApproval",
      "outputs": [
        {
          "name": "",
          "type": "bool"
        }
      ],
      "payable": false,
      "stateMutability": "nonpayable",
      "type": "function"
    },
    {
      "constant": true,
      "inputs": [
        {
          "name": "_owner",
          "type": "address"
        },
        {
          "name": "_spender",
          "type": "address"
        }
      ],
      "name": "allowance",
      "outputs": [
        {
          "name": "",
          "type": "uint256"
        }
      ],
      "payable": false,
      "stateMutability": "view",
      "type": "function"
    },
    {
      "inputs": [],
      "payable": false,
      "stateMutability": "nonpayable",
      "type": "constructor"
    },
    {
      "anonymous": false,
      "inputs": [
        {
          "indexed": true,
          "name": "owner",
          "type": "address"
        },
        {
          "indexed": true,
          "name": "spender",
          "type": "address"
        },
        {
          "indexed": false,
          "name": "value",
          "type": "uint256"
        }
      ],
      "name": "Approval",
      "type": "event"
    },
    {
      "anonymous": false,
      "inputs": [
        {
          "indexed": true,
          "name": "from",
          "type": "address"
        },
        {
          "indexed": true,
          "name": "to",
          "type": "address"
        },
        {
          "indexed": false,
          "name": "value",
          "type": "uint256"
        }
      ],
      "name": "Transfer",
      "type": "event"
    }
  ],
  "bytecode": "0x606060405234156200001057600080fd5b604080519081016040908152600b82527f414d53595320546f6b656e00000000000000000000000000000000000000000060208301528051908101604052600481527f414d5354000000000000000000000000000000000000000000000000000000006020820152600060038380516200008f929160200190620001a7565b506004828051620000a5929160200190620001a7565b506005805460ff191660ff9290921691909117905550620000d59050640100000000620000dc8102620007da1704565b506200024c565b6000805433906103e8906200010090826401000000006200095b6200019082021704565b6000908155600160a060020a0383168152600160205260409020546200013590826401000000006200095b6200019082021704565b600160a060020a0383166000818152600160205260408082209390935590917fddf252ad1be2c89b69c2b068fc378daa952ba7f163c4a11628f55a4df523b3ef9084905190815260200160405180910390a360019250505090565b600082820183811015620001a057fe5b9392505050565b828054600181600116156101000203166002900490600052602060002090601f016020900481019282601f10620001ea57805160ff19168380011785556200021a565b828001600101855582156200021a579182015b828111156200021a578251825591602001919060010190620001fd565b50620002289291506200022c565b5090565b6200024991905b8082111562000228576000815560010162000233565b90565b61099d806200025c6000396000f3006060604052600436106100b95763ffffffff7c010000000000000000000000000000000000000000000000000000000060003504166306fdde0381146100be578063095ea7b31461014857806318160ddd1461017e57806323b872dd146101a3578063313ce567146101cb57806366188463146101f457806370a082311461021657806395d89b4114610235578063a9059cbb14610248578063aa6ca8081461026a578063d73dd6231461027d578063dd62ed3e1461029f575b600080fd5b34156100c957600080fd5b6100d16102c4565b60405160208082528190810183818151815260200191508051906020019080838360005b8381101561010d5780820151838201526020016100f5565b50505050905090810190601f16801561013a5780820380516001836020036101000a031916815260200191505b509250505060405180910390f35b341561015357600080fd5b61016a600160a060020a0360043516602435610362565b604051901515815260200160405180910390f35b341561018957600080fd5b6101916103ce565b60405190815260200160405180910390f35b34156101ae57600080fd5b61016a600160a060020a03600435811690602435166044356103d4565b34156101d657600080fd5b6101de610556565b60405160ff909116815260200160405180910390f35b34156101ff57600080fd5b61016a600160a060020a036004351660243561055f565b341561022157600080fd5b610191600160a060020a0360043516610659565b341561024057600080fd5b6100d1610674565b341561025357600080fd5b61016a600160a060020a03600435166024356106df565b341561027557600080fd5b61016a6107da565b341561028857600080fd5b61016a600160a060020a036004351660243561087a565b34156102aa57600080fd5b610191600160a060020a036004358116906024351661091e565b60038054600181600116156101000203166002900480601f01602080910402602001604051908101604052809291908181526020018280546001816001161561010002031660029004801561035a5780601f1061032f5761010080835404028352916020019161035a565b820191906000526020600020905b81548152906001019060200180831161033d57829003601f168201915b505050505081565b600160a060020a03338116600081815260026020908152604080832094871680845294909152808220859055909291907f8c5be1e5ebec7d5bd14f71427d1e84f3dd0314c0f7b2291e5b200ac8c7c3b9259085905190815260200160405180910390a350600192915050565b60005481565b6000600160a060020a03831615156103eb57600080fd5b600160a060020a03841660009081526001602052604090205482111561041057600080fd5b600160a060020a038085166000908152600260209081526040808320339094168352929052205482111561044357600080fd5b600160a060020a03841660009081526001602052604090205461046c908363ffffffff61094916565b600160a060020a0380861660009081526001602052604080822093909355908516815220546104a1908363ffffffff61095b16565b600160a060020a038085166000908152600160209081526040808320949094558783168252600281528382203390931682529190915220546104e9908363ffffffff61094916565b600160a060020a03808616600081815260026020908152604080832033861684529091529081902093909355908516917fddf252ad1be2c89b69c2b068fc378daa952ba7f163c4a11628f55a4df523b3ef9085905190815260200160405180910390a35060019392505050565b60055460ff1681565b600160a060020a033381166000908152600260209081526040808320938616835292905290812054808311156105bc57600160a060020a0333811660009081526002602090815260408083209388168352929052908120556105f3565b6105cc818463ffffffff61094916565b600160a060020a033381166000908152600260209081526040808320938916835292905220555b600160a060020a0333811660008181526002602090815260408083209489168084529490915290819020547f8c5be1e5ebec7d5bd14f71427d1e84f3dd0314c0f7b2291e5b200ac8c7c3b925915190815260200160405180910390a35060019392505050565b600160a060020a031660009081526001602052604090205490565b60048054600181600116156101000203166002900480601f01602080910402602001604051908101604052809291908181526020018280546001816001161561010002031660029004801561035a5780601f1061032f5761010080835404028352916020019161035a565b6000600160a060020a03831615156106f657600080fd5b600160a060020a03331660009081526001602052604090205482111561071b57600080fd5b600160a060020a033316600090815260016020526040902054610744908363ffffffff61094916565b600160a060020a033381166000908152600160205260408082209390935590851681522054610779908363ffffffff61095b16565b600160a060020a0380851660008181526001602052604090819020939093559133909116907fddf252ad1be2c89b69c2b068fc378daa952ba7f163c4a11628f55a4df523b3ef9085905190815260200160405180910390a350600192915050565b6000805433906103e8906107f4908263ffffffff61095b16565b6000908155600160a060020a03831681526001602052604090205461081f908263ffffffff61095b16565b600160a060020a0383166000818152600160205260408082209390935590917fddf252ad1be2c89b69c2b068fc378daa952ba7f163c4a11628f55a4df523b3ef9084905190815260200160405180910390a360019250505090565b600160a060020a0333811660009081526002602090815260408083209386168352929052908120546108b2908363ffffffff61095b16565b600160a060020a0333811660008181526002602090815260408083209489168084529490915290819020849055919290917f8c5be1e5ebec7d5bd14f71427d1e84f3dd0314c0f7b2291e5b200ac8c7c3b92591905190815260200160405180910390a350600192915050565b600160a060020a03918216600090815260026020908152604080832093909416825291909152205490565b60008282111561095557fe5b50900390565b60008282018381101561096a57fe5b93925050505600a165627a7a723058206c1de18753986671c1ab7b6822a7e0384e14aaaa44cdacc152fc77e3b64178a10029",
  "source": "pragma solidity ^0.4.17;\r\n\r\nimport 'zeppelin-solidity/contracts/token/StandardToken.sol';\r\nimport 'zeppelin-solidity/contracts/token/DetailedERC20.sol';\r\n\r\ncontract PoCToken is StandardToken, DetailedERC20 {\r\n\r\n  function PoCToken() DetailedERC20(\"AMSYS Token\", \"AMST\", 0) public {\r\n    getTokens();\r\n  }\r\n\r\n  /**\r\n   * @dev Function to create tokens\r\n   * @return A boolean that indicates if the operation was successful.\r\n   */\r\n  function getTokens() public returns (bool) {\r\n    address _to = msg.sender;\r\n    uint _amount = 1000;\r\n    totalSupply = totalSupply.add(_amount);\r\n    balances[_to] = balances[_to].add(_amount);\r\n    Transfer(address(0), _to, _amount);\r\n    return true;\r\n  }\r\n\r\n}",
  "sourcePath": "/home/ubuntu/education/LFS171x/sawtooth-material/sawtooth-tuna/client/PoC/contracts/PoCToken.sol",
  "compiler": {
    "name": "solc",
    "version": "0.4.18+commit.9cf6e910.Emscripten.clang"
  },
  "schemaVersion": "1.0.1",
  "updatedAt": "2018-01-05T06:45:20.435Z"
}